{
  "_format": "hh-sol-artifact-1",
  "contractName": "BuyMeACoffee",
  "sourceName": "contracts/BuyMeACoffee.sol",
  "abi": [
    {
      "inputs": [],
      "stateMutability": "nonpayable",
      "type": "constructor"
    },
    {
      "anonymous": false,
      "inputs": [
        {
          "indexed": true,
          "internalType": "address",
          "name": "from",
          "type": "address"
        },
        {
          "indexed": false,
          "internalType": "uint256",
          "name": "timestamp",
          "type": "uint256"
        },
        {
          "indexed": false,
          "internalType": "string",
          "name": "name",
          "type": "string"
        },
        {
          "indexed": false,
          "internalType": "string",
          "name": "message",
          "type": "string"
        }
      ],
      "name": "NewMemo",
      "type": "event"
    },
    {
      "inputs": [
        {
          "internalType": "string",
          "name": "_name",
          "type": "string"
        },
        {
          "internalType": "string",
          "name": "_message",
          "type": "string"
        }
      ],
      "name": "buyCoffee",
      "outputs": [],
      "stateMutability": "payable",
      "type": "function"
    },
    {
      "inputs": [
        {
          "internalType": "address payable",
          "name": "newWithdrawAddress",
          "type": "address"
        }
      ],
      "name": "changeWithdrawAddress",
      "outputs": [],
      "stateMutability": "nonpayable",
      "type": "function"
    },
    {
      "inputs": [],
      "name": "getMemos",
      "outputs": [
        {
          "components": [
            {
              "internalType": "address",
              "name": "from",
              "type": "address"
            },
            {
              "internalType": "uint256",
              "name": "timestamp",
              "type": "uint256"
            },
            {
              "internalType": "string",
              "name": "name",
              "type": "string"
            },
            {
              "internalType": "string",
              "name": "message",
              "type": "string"
            }
          ],
          "internalType": "struct BuyMeACoffee.Memo[]",
          "name": "",
          "type": "tuple[]"
        }
      ],
      "stateMutability": "view",
      "type": "function"
    },
    {
      "inputs": [],
      "name": "withdrawTips",
      "outputs": [],
      "stateMutability": "nonpayable",
      "type": "function"
    }
  ],
  "bytecode": "0x608060405234801561001057600080fd5b50336000806101000a81548173ffffffffffffffffffffffffffffffffffffffff021916908373ffffffffffffffffffffffffffffffffffffffff16021790555060008054906101000a900473ffffffffffffffffffffffffffffffffffffffff16600160006101000a81548173ffffffffffffffffffffffffffffffffffffffff021916908373ffffffffffffffffffffffffffffffffffffffff160217905550610c5b806100c16000396000f3fe60806040526004361061003f5760003560e01c80631453671d14610044578063204206e11461006d5780633aaa74b214610089578063865c5172146100a0575b600080fd5b34801561005057600080fd5b5061006b6004803603810190610066919061068a565b6100cb565b005b610087600480360381019061008291906106b3565b61019d565b005b34801561009557600080fd5b5061009e610325565b005b3480156100ac57600080fd5b506100b5610387565b6040516100c291906108f7565b60405180910390f35b60008054906101000a900473ffffffffffffffffffffffffffffffffffffffff1673ffffffffffffffffffffffffffffffffffffffff163373ffffffffffffffffffffffffffffffffffffffff1614610159576040517f08c379a000000000000000000000000000000000000000000000000000000000815260040161015090610919565b60405180910390fd5b80600160006101000a81548173ffffffffffffffffffffffffffffffffffffffff021916908373ffffffffffffffffffffffffffffffffffffffff16021790555050565b600034116101e0576040517f08c379a00000000000000000000000000000000000000000000000000000000081526004016101d790610939565b60405180910390fd5b600260405180608001604052803373ffffffffffffffffffffffffffffffffffffffff16815260200142815260200184815260200183815250908060018154018082558091505060019003906000526020600020906004020160009091909190915060008201518160000160006101000a81548173ffffffffffffffffffffffffffffffffffffffff021916908373ffffffffffffffffffffffffffffffffffffffff1602179055506020820151816001015560408201518160020190805190602001906102af92919061056a565b5060608201518160030190805190602001906102cc92919061056a565b5050503373ffffffffffffffffffffffffffffffffffffffff167fc56140e05f516509ae28110e0f72e17558a7561630dad2647c3ae87d986e365c42848460405161031993929190610959565b60405180910390a25050565b600160009054906101000a900473ffffffffffffffffffffffffffffffffffffffff1673ffffffffffffffffffffffffffffffffffffffff166108fc479081150290604051600060405180830381858888f1935050505061038557600080fd5b565b60606002805480602002602001604051908101604052809291908181526020016000905b8282101561056157838290600052602060002090600402016040518060800160405290816000820160009054906101000a900473ffffffffffffffffffffffffffffffffffffffff1673ffffffffffffffffffffffffffffffffffffffff1673ffffffffffffffffffffffffffffffffffffffff1681526020016001820154815260200160028201805461043e90610aea565b80601f016020809104026020016040519081016040528092919081815260200182805461046a90610aea565b80156104b75780601f1061048c576101008083540402835291602001916104b7565b820191906000526020600020905b81548152906001019060200180831161049a57829003601f168201915b505050505081526020016003820180546104d090610aea565b80601f01602080910402602001604051908101604052809291908181526020018280546104fc90610aea565b80156105495780601f1061051e57610100808354040283529160200191610549565b820191906000526020600020905b81548152906001019060200180831161052c57829003601f168201915b505050505081525050815260200190600101906103ab565b50505050905090565b82805461057690610aea565b90600052602060002090601f01602090048101928261059857600085556105df565b82601f106105b157805160ff19168380011785556105df565b828001600101855582156105df579182015b828111156105de5782518255916020019190600101906105c3565b5b5090506105ec91906105f0565b5090565b5b808211156106095760008160009055506001016105f1565b5090565b600061062061061b846109c3565b61099e565b90508281526020810184848401111561063857600080fd5b610643848285610aa8565b509392505050565b60008135905061065a81610c0e565b92915050565b600082601f83011261067157600080fd5b813561068184826020860161060d565b91505092915050565b60006020828403121561069c57600080fd5b60006106aa8482850161064b565b91505092915050565b600080604083850312156106c657600080fd5b600083013567ffffffffffffffff8111156106e057600080fd5b6106ec85828601610660565b925050602083013567ffffffffffffffff81111561070957600080fd5b61071585828601610660565b9150509250929050565b600061072b838361086f565b905092915050565b61073c81610a5a565b82525050565b600061074d82610a04565b6107578185610a27565b935083602082028501610769856109f4565b8060005b858110156107a55784840389528151610786858261071f565b945061079183610a1a565b925060208a0199505060018101905061076d565b50829750879550505050505092915050565b60006107c282610a0f565b6107cc8185610a38565b93506107dc818560208601610ab7565b6107e581610bab565b840191505092915050565b60006107fb82610a0f565b6108058185610a49565b9350610815818560208601610ab7565b61081e81610bab565b840191505092915050565b6000610836601383610a49565b915061084182610bbc565b602082019050919050565b6000610859601a83610a49565b915061086482610be5565b602082019050919050565b60006080830160008301516108876000860182610733565b50602083015161089a60208601826108d9565b50604083015184820360408601526108b282826107b7565b915050606083015184820360608601526108cc82826107b7565b9150508091505092915050565b6108e281610a9e565b82525050565b6108f181610a9e565b82525050565b600060208201905081810360008301526109118184610742565b905092915050565b6000602082019050818103600083015261093281610829565b9050919050565b600060208201905081810360008301526109528161084c565b9050919050565b600060608201905061096e60008301866108e8565b818103602083015261098081856107f0565b9050818103604083015261099481846107f0565b9050949350505050565b60006109a86109b9565b90506109b48282610b1c565b919050565b6000604051905090565b600067ffffffffffffffff8211156109de576109dd610b7c565b5b6109e782610bab565b9050602081019050919050565b6000819050602082019050919050565b600081519050919050565b600081519050919050565b6000602082019050919050565b600082825260208201905092915050565b600082825260208201905092915050565b600082825260208201905092915050565b6000610a6582610a7e565b9050919050565b6000610a7782610a7e565b9050919050565b600073ffffffffffffffffffffffffffffffffffffffff82169050919050565b6000819050919050565b82818337600083830152505050565b60005b83811015610ad5578082015181840152602081019050610aba565b83811115610ae4576000848401525b50505050565b60006002820490506001821680610b0257607f821691505b60208210811415610b1657610b15610b4d565b5b50919050565b610b2582610bab565b810181811067ffffffffffffffff82111715610b4457610b43610b7c565b5b80604052505050565b7f4e487b7100000000000000000000000000000000000000000000000000000000600052602260045260246000fd5b7f4e487b7100000000000000000000000000000000000000000000000000000000600052604160045260246000fd5b6000601f19601f8301169050919050565b7f63616c6c6572206973206e6f74206f776e657200000000000000000000000000600082015250565b7f63616e27742062757920636f6666656520666f72206672656521000000000000600082015250565b610c1781610a6c565b8114610c2257600080fd5b5056fea2646970667358221220d6e338f2e62a1989ba8bf684859a08196b3d7942a06edcdfa0f660a635427f2a64736f6c63430008040033",
  "linkReferences": {},
  "deployedLinkReferences": {}
}